{
  "_format": "hh-sol-artifact-1",
  "contractName": "CrowdFund",
  "sourceName": "contracts/CrowdFund.sol",
  "abi": [
    {
      "inputs": [
        {
          "internalType": "uint256",
          "name": "_listCharge",
          "type": "uint256"
        },
        {
          "internalType": "address",
          "name": "_nftMarketAddress",
          "type": "address"
        },
        {
          "internalType": "address",
          "name": "_erc20TokenAddress",
          "type": "address"
        }
      ],
      "stateMutability": "nonpayable",
      "type": "constructor"
    },
    {
      "inputs": [
        {
          "internalType": "uint256",
          "name": "_amt",
          "type": "uint256"
        }
      ],
      "name": "changeListCharge",
      "outputs": [],
      "stateMutability": "nonpayable",
      "type": "function"
    },
    {
      "inputs": [
        {
          "internalType": "uint256",
          "name": "_id",
          "type": "uint256"
        },
        {
          "internalType": "string",
          "name": "uri",
          "type": "string"
        },
        {
          "internalType": "uint256",
          "name": "option",
          "type": "uint256"
        }
      ],
      "name": "contribute",
      "outputs": [],
      "stateMutability": "payable",
      "type": "function"
    },
    {
      "inputs": [
        {
          "internalType": "address",
          "name": "",
          "type": "address"
        }
      ],
      "name": "contributors",
      "outputs": [
        {
          "internalType": "address",
          "name": "b_address",
          "type": "address"
        },
        {
          "internalType": "uint256",
          "name": "value",
          "type": "uint256"
        }
      ],
      "stateMutability": "view",
      "type": "function"
    },
    {
      "inputs": [
        {
          "internalType": "string",
          "name": "_title",
          "type": "string"
        },
        {
          "internalType": "uint256",
          "name": "_value",
          "type": "uint256"
        },
        {
          "internalType": "uint256",
          "name": "_minCont",
          "type": "uint256"
        },
        {
          "internalType": "address payable",
          "name": "_res",
          "type": "address"
        }
      ],
      "name": "createProject",
      "outputs": [],
      "stateMutability": "payable",
      "type": "function"
    },
    {
      "inputs": [],
      "name": "erc20Token",
      "outputs": [
        {
          "internalType": "contract HAMSToken",
          "name": "",
          "type": "address"
        }
      ],
      "stateMutability": "view",
      "type": "function"
    },
    {
      "inputs": [],
      "name": "getProjectId",
      "outputs": [
        {
          "internalType": "uint256",
          "name": "",
          "type": "uint256"
        }
      ],
      "stateMutability": "view",
      "type": "function"
    },
    {
      "inputs": [],
      "name": "nftMarket",
      "outputs": [
        {
          "internalType": "contract NftMint",
          "name": "",
          "type": "address"
        }
      ],
      "stateMutability": "view",
      "type": "function"
    },
    {
      "inputs": [],
      "name": "owner",
      "outputs": [
        {
          "internalType": "address",
          "name": "",
          "type": "address"
        }
      ],
      "stateMutability": "view",
      "type": "function"
    },
    {
      "inputs": [
        {
          "internalType": "uint256",
          "name": "",
          "type": "uint256"
        }
      ],
      "name": "projects",
      "outputs": [
        {
          "internalType": "string",
          "name": "title",
          "type": "string"
        },
        {
          "internalType": "uint256",
          "name": "value",
          "type": "uint256"
        },
        {
          "internalType": "uint256",
          "name": "collectedValue",
          "type": "uint256"
        },
        {
          "internalType": "uint256",
          "name": "minimumContribution",
          "type": "uint256"
        },
        {
          "internalType": "address payable",
          "name": "recipient",
          "type": "address"
        },
        {
          "internalType": "bool",
          "name": "isCompleted",
          "type": "bool"
        },
        {
          "internalType": "uint256",
          "name": "contributorsCount",
          "type": "uint256"
        },
        {
          "internalType": "uint256",
          "name": "projectId",
          "type": "uint256"
        }
      ],
      "stateMutability": "view",
      "type": "function"
    },
    {
      "inputs": [],
      "name": "sendFund",
      "outputs": [],
      "stateMutability": "nonpayable",
      "type": "function"
    }
  ],
  "bytecode": "0x60806040523480156200001157600080fd5b50604051620018a8380380620018a88339818101604052810190620000379190620001ae565b82600281905550336000806101000a81548173ffffffffffffffffffffffffffffffffffffffff021916908373ffffffffffffffffffffffffffffffffffffffff16021790555081600560006101000a81548173ffffffffffffffffffffffffffffffffffffffff021916908373ffffffffffffffffffffffffffffffffffffffff16021790555080600660006101000a81548173ffffffffffffffffffffffffffffffffffffffff021916908373ffffffffffffffffffffffffffffffffffffffff1602179055505050506200020a565b600080fd5b6000819050919050565b62000123816200010e565b81146200012f57600080fd5b50565b600081519050620001438162000118565b92915050565b600073ffffffffffffffffffffffffffffffffffffffff82169050919050565b6000620001768262000149565b9050919050565b620001888162000169565b81146200019457600080fd5b50565b600081519050620001a8816200017d565b92915050565b600080600060608486031215620001ca57620001c962000109565b5b6000620001da8682870162000132565b9350506020620001ed8682870162000197565b9250506040620002008682870162000197565b9150509250925092565b61168e806200021a6000396000f3fe6080604052600436106100915760003560e01c80633e53ac55116100595780633e53ac55146101975780638a13eea7146101b35780638da5cb5b146101de578063dd0cf15d14610209578063e80ed7e21461022057610091565b8063107046bd146100965780631270e10c146100da578063196ab1ab146101055780631aed90fe146101305780631f6d494214610159575b600080fd5b3480156100a257600080fd5b506100bd60048036038101906100b89190610a36565b61023c565b6040516100d1989796959493929190610b5e565b60405180910390f35b3480156100e657600080fd5b506100ef610339565b6040516100fc9190610be3565b60405180910390f35b34801561011157600080fd5b5061011a610343565b6040516101279190610c5d565b60405180910390f35b34801561013c57600080fd5b5061015760048036038101906101529190610a36565b610369565b005b34801561016557600080fd5b50610180600480360381019061017b9190610cb6565b610401565b60405161018e929190610cf2565b60405180910390f35b6101b160048036038101906101ac9190610e7c565b610445565b005b3480156101bf57600080fd5b506101c8610515565b6040516101d59190610f20565b60405180910390f35b3480156101ea57600080fd5b506101f361053b565b6040516102009190610f3b565b60405180910390f35b34801561021557600080fd5b5061021e61055f565b005b61023a60048036038101906102359190610f56565b6105f9565b005b600360205280600052604060002060009150905080600001805461025f90610ff4565b80601f016020809104026020016040519081016040528092919081815260200182805461028b90610ff4565b80156102d85780601f106102ad576101008083540402835291602001916102d8565b820191906000526020600020905b8154815290600101906020018083116102bb57829003601f168201915b5050505050908060010154908060020154908060030154908060040160009054906101000a900473ffffffffffffffffffffffffffffffffffffffff16908060040160149054906101000a900460ff16908060050154908060060154905088565b6000600154905090565b600560009054906101000a900473ffffffffffffffffffffffffffffffffffffffff1681565b60008054906101000a900473ffffffffffffffffffffffffffffffffffffffff1673ffffffffffffffffffffffffffffffffffffffff163373ffffffffffffffffffffffffffffffffffffffff16146103f7576040517f08c379a00000000000000000000000000000000000000000000000000000000081526004016103ee90611071565b60405180910390fd5b8060028190555050565b60046020528060005260406000206000915090508060000160009054906101000a900473ffffffffffffffffffffffffffffffffffffffff16908060010154905082565b60016000815480929190610458906110c0565b9190505550600060036000600154815260200190815260200160002090508481600001908161048791906112aa565b50670de0b6b3a76400008461049c919061137c565b8160010181905550670de0b6b3a7640000836104b8919061137c565b8160030181905550818160040160006101000a81548173ffffffffffffffffffffffffffffffffffffffff021916908373ffffffffffffffffffffffffffffffffffffffff16021790555060015481600601819055505050505050565b600660009054906101000a900473ffffffffffffffffffffffffffffffffffffffff1681565b60008054906101000a900473ffffffffffffffffffffffffffffffffffffffff1681565b60008060009054906101000a900473ffffffffffffffffffffffffffffffffffffffff1673ffffffffffffffffffffffffffffffffffffffff16476040516105a6906113ef565b60006040518083038185875af1925050503d80600081146105e3576040519150601f19603f3d011682016040523d82523d6000602084013e6105e8565b606091505b50509050806105f657600080fd5b50565b60006003600085815260200190815260200160002090506000600460003373ffffffffffffffffffffffffffffffffffffffff1673ffffffffffffffffffffffffffffffffffffffff1681526020019081526020016000209050816003015434101561069a576040517f08c379a00000000000000000000000000000000000000000000000000000000081526004016106919061149c565b60405180910390fd5b81600101543483600201546106af91906114bc565b11156106f0576040517f08c379a00000000000000000000000000000000000000000000000000000000081526004016106e79061153c565b60405180910390fd5b8160040160149054906101000a900460ff161561070c57600080fd5b338160000160006101000a81548173ffffffffffffffffffffffffffffffffffffffff021916908373ffffffffffffffffffffffffffffffffffffffff1602179055503481600101819055503482600201600082825461076c91906114bc565b92505081905550600182600501600082825461078891906114bc565b9250508190555081600101548260020154036108915760008260040160009054906101000a900473ffffffffffffffffffffffffffffffffffffffff1673ffffffffffffffffffffffffffffffffffffffff1683600101546040516107ec906113ef565b60006040518083038185875af1925050503d8060008114610829576040519150601f19603f3d011682016040523d82523d6000602084013e61082e565b606091505b5050905080610872576040517f08c379a0000000000000000000000000000000000000000000000000000000008152600401610869906115a8565b60405180910390fd5b60018360040160146101000a81548160ff021916908315150217905550505b6001830361092d57600560009054906101000a900473ffffffffffffffffffffffffffffffffffffffff1673ffffffffffffffffffffffffffffffffffffffff1663d204c45e33866040518363ffffffff1660e01b81526004016108f69291906115c8565b600060405180830381600087803b15801561091057600080fd5b505af1158015610924573d6000803e3d6000fd5b505050506109e5565b600083036109e457600660009054906101000a900473ffffffffffffffffffffffffffffffffffffffff1673ffffffffffffffffffffffffffffffffffffffff166340c10f19336032670de0b6b3a76400003461098a9190611627565b610994919061137c565b6040518363ffffffff1660e01b81526004016109b1929190610cf2565b600060405180830381600087803b1580156109cb57600080fd5b505af11580156109df573d6000803e3d6000fd5b505050505b5b5050505050565b6000604051905090565b600080fd5b600080fd5b6000819050919050565b610a1381610a00565b8114610a1e57600080fd5b50565b600081359050610a3081610a0a565b92915050565b600060208284031215610a4c57610a4b6109f6565b5b6000610a5a84828501610a21565b91505092915050565b600081519050919050565b600082825260208201905092915050565b60005b83811015610a9d578082015181840152602081019050610a82565b60008484015250505050565b6000601f19601f8301169050919050565b6000610ac582610a63565b610acf8185610a6e565b9350610adf818560208601610a7f565b610ae881610aa9565b840191505092915050565b610afc81610a00565b82525050565b600073ffffffffffffffffffffffffffffffffffffffff82169050919050565b6000610b2d82610b02565b9050919050565b610b3d81610b22565b82525050565b60008115159050919050565b610b5881610b43565b82525050565b6000610100820190508181036000830152610b79818b610aba565b9050610b88602083018a610af3565b610b956040830189610af3565b610ba26060830188610af3565b610baf6080830187610b34565b610bbc60a0830186610b4f565b610bc960c0830185610af3565b610bd660e0830184610af3565b9998505050505050505050565b6000602082019050610bf86000830184610af3565b92915050565b6000819050919050565b6000610c23610c1e610c1984610b02565b610bfe565b610b02565b9050919050565b6000610c3582610c08565b9050919050565b6000610c4782610c2a565b9050919050565b610c5781610c3c565b82525050565b6000602082019050610c726000830184610c4e565b92915050565b6000610c8382610b02565b9050919050565b610c9381610c78565b8114610c9e57600080fd5b50565b600081359050610cb081610c8a565b92915050565b600060208284031215610ccc57610ccb6109f6565b5b6000610cda84828501610ca1565b91505092915050565b610cec81610c78565b82525050565b6000604082019050610d076000830185610ce3565b610d146020830184610af3565b9392505050565b600080fd5b600080fd5b7f4e487b7100000000000000000000000000000000000000000000000000000000600052604160045260246000fd5b610d5d82610aa9565b810181811067ffffffffffffffff82111715610d7c57610d7b610d25565b5b80604052505050565b6000610d8f6109ec565b9050610d9b8282610d54565b919050565b600067ffffffffffffffff821115610dbb57610dba610d25565b5b610dc482610aa9565b9050602081019050919050565b82818337600083830152505050565b6000610df3610dee84610da0565b610d85565b905082815260208101848484011115610e0f57610e0e610d20565b5b610e1a848285610dd1565b509392505050565b600082601f830112610e3757610e36610d1b565b5b8135610e47848260208601610de0565b91505092915050565b610e5981610b22565b8114610e6457600080fd5b50565b600081359050610e7681610e50565b92915050565b60008060008060808587031215610e9657610e956109f6565b5b600085013567ffffffffffffffff811115610eb457610eb36109fb565b5b610ec087828801610e22565b9450506020610ed187828801610a21565b9350506040610ee287828801610a21565b9250506060610ef387828801610e67565b91505092959194509250565b6000610f0a82610c2a565b9050919050565b610f1a81610eff565b82525050565b6000602082019050610f356000830184610f11565b92915050565b6000602082019050610f506000830184610ce3565b92915050565b600080600060608486031215610f6f57610f6e6109f6565b5b6000610f7d86828701610a21565b935050602084013567ffffffffffffffff811115610f9e57610f9d6109fb565b5b610faa86828701610e22565b9250506040610fbb86828701610a21565b9150509250925092565b7f4e487b7100000000000000000000000000000000000000000000000000000000600052602260045260246000fd5b6000600282049050600182168061100c57607f821691505b60208210810361101f5761101e610fc5565b5b50919050565b7f4f6e6c79206f776e657220697320616c6c6f7765642e00000000000000000000600082015250565b600061105b601683610a6e565b915061106682611025565b602082019050919050565b6000602082019050818103600083015261108a8161104e565b9050919050565b7f4e487b7100000000000000000000000000000000000000000000000000000000600052601160045260246000fd5b60006110cb82610a00565b91507fffffffffffffffffffffffffffffffffffffffffffffffffffffffffffffffff82036110fd576110fc611091565b5b600182019050919050565b60008190508160005260206000209050919050565b60006020601f8301049050919050565b600082821b905092915050565b60006008830261116a7fffffffffffffffffffffffffffffffffffffffffffffffffffffffffffffffff8261112d565b611174868361112d565b95508019841693508086168417925050509392505050565b60006111a76111a261119d84610a00565b610bfe565b610a00565b9050919050565b6000819050919050565b6111c18361118c565b6111d56111cd826111ae565b84845461113a565b825550505050565b600090565b6111ea6111dd565b6111f58184846111b8565b505050565b5b818110156112195761120e6000826111e2565b6001810190506111fb565b5050565b601f82111561125e5761122f81611108565b6112388461111d565b81016020851015611247578190505b61125b6112538561111d565b8301826111fa565b50505b505050565b600082821c905092915050565b600061128160001984600802611263565b1980831691505092915050565b600061129a8383611270565b9150826002028217905092915050565b6112b382610a63565b67ffffffffffffffff8111156112cc576112cb610d25565b5b6112d68254610ff4565b6112e182828561121d565b600060209050601f8311600181146113145760008415611302578287015190505b61130c858261128e565b865550611374565b601f19841661132286611108565b60005b8281101561134a57848901518255600182019150602085019450602081019050611325565b868310156113675784890151611363601f891682611270565b8355505b6001600288020188555050505b505050505050565b600061138782610a00565b915061139283610a00565b92508282026113a081610a00565b915082820484148315176113b7576113b6611091565b5b5092915050565b600081905092915050565b50565b60006113d96000836113be565b91506113e4826113c9565b600082019050919050565b60006113fa826113cc565b9150819050919050565b7f436f6e747269627574696f6e2073686f756c642062652067726561746572207460008201527f68616e206f7220657175616c20746f20746865206d696e696d756d20636f6e7460208201527f7269627574696f6e000000000000000000000000000000000000000000000000604082015250565b6000611486604883610a6e565b915061149182611404565b606082019050919050565b600060208201905081810360008301526114b581611479565b9050919050565b60006114c782610a00565b91506114d283610a00565b92508282019050808211156114ea576114e9611091565b5b92915050565b7f4d6f72652066756e6473207468616e206e656564656400000000000000000000600082015250565b6000611526601683610a6e565b9150611531826114f0565b602082019050919050565b6000602082019050818103600083015261155581611519565b9050919050565b7f526563697069656e74207472616e73666572206661696c656400000000000000600082015250565b6000611592601983610a6e565b915061159d8261155c565b602082019050919050565b600060208201905081810360008301526115c181611585565b9050919050565b60006040820190506115dd6000830185610ce3565b81810360208301526115ef8184610aba565b90509392505050565b7f4e487b7100000000000000000000000000000000000000000000000000000000600052601260045260246000fd5b600061163282610a00565b915061163d83610a00565b92508261164d5761164c6115f8565b5b82820490509291505056fea2646970667358221220199ebee122435cea7a9ca523cf7f225813cb1b9402b255a7687ec359c7fb664764736f6c63430008140033",
  "linkReferences": {},
  "deployedLinkReferences": {}
}